:0400000025EF09F0EF
:10100000004C4544203120456E63656E6469646F11
:101010000D004C4544203220456E63656E64696462
:101020006F0D004C4544203320456E63656E646946
:10103000646F0D004C45447320456E63656E6469B2
:10104000646F730D004C454420312041706167612D
:10105000646F0D004C45442032204170616761642B
:101060006F0D004C45442033204170616761646F0F
:101070000D004C454473204170616761646F730DCE
:10108000000000EC09F0F1EC08F00EEC09F0066E3F
:10109000030E056E080E046E770EE82EFED7042EA2
:1010A000FCD7052EFAD700F0A7EF08F08D80010ECF
:1010B000026E100E036ED6EC08F045EF08F08D902E
:1010C000450E026E100E036ED6EC08F045EF08F0E8
:1010D0008D82120E026E100E036ED6EC08F045EFF4
:1010E00008F08D92540E026E100E036ED6EC08F0CE
:1010F00045EF08F08D84230E026E100E036ED6ECC1
:1011000008F045EF08F08D94630E026E100E036E2A
:10111000D6EC08F045EF08F08D808D828D84340E7A
:10112000026E100E036ED6EC08F045EF08F08D90BD
:101130008D928D94720E026E100E036ED6EC08F036
:1011400045EF08F08D908D928D9445EF08F0065094
:10115000046E056A0550000AD8B4B1EF08F0A2EF9A
:1011600008F00450610AD8B456EF08F0030AD8B466
:101170005FEF08F0010AD8B468EF08F0070AD8B4A6
:1011800071EF08F0010AD8B47AEF08F0030AD8B476
:1011900083EF08F0010AD8B48CEF08F00F0AD8B436
:1011A00097EF08F0A2EF08F000EF00F0E2EF08F090
:1011B00002C0F6FF03C0F7FF0800F5501AEC09F073
:1011C000024A032A02C0F6FF03C0F7FF0800F550E9
:1011D0000009D8A4EEEF08F0F0EF08F0D8EF08F01F
:1011E0001200948E949C000EAC6E000EAB6E200E1E
:1011F000AC6E190EAF6E900EAB6E000EB86E120094
:10120000D3508F0B6009D36E9B8C0F0EC11296903A
:10121000969296948D908D928D9412009EAA13EFC3
:1012200009F015EF09F00EEF09F0AECF01F09E9A2C
:1012300001501200016E01C0ADFFACA222EF09F017
:1012400024EF09F01DEF09F01200000EF86E000106
:0412500041EF08F072
:020000040020DA
:08000000FFFFFFFFFFFFFFFF00
:020000040030CA
:0E000000FFC8181EFF8180FF0FC00FE00F40E9
:00000001FF
