:040000007AEF0EF095
:101000000020204D724368756E636B756565212005
:1010100020005254433A2044533133303720646522
:101020006D6F003F3F3F0057454400545545004613
:101030005249004D4F4E0053554E005341540054F9
:10104000485500414D00504D002F003A0000000E61
:10105000096E010E0A6E20EE01F01250D9261350CF
:10106000DA22DF50146E1450016E026A000E046E14
:101070000A0E036E48EC0CF00150300F67EC0EF0D6
:10108000010E096E010E0A6E20EE01F01250D926F3
:101090001350DA22DF50146E1450016E026A000EF3
:1010A000046E0A0E036E8AEC0CF00150300F67ECF0
:1010B0000EF0490E066E100E076E06500710D8A4EB
:1010C000000E086E020E096E010E0A6E02EC0CF0A4
:1010D000030E096E010E0A6E20EE02F01250D926A0
:1010E0001350DA22DF50146E1450016E026A000EA3
:1010F000046E0A0E036E48EC0CF00150300F67ECE2
:101100000EF0040E096E010E0A6E20EE02F012506F
:10111000D9261350DA22DF50146E1450016E026A81
:10112000000E046E0A0E036E8AEC0CF00150300FB4
:1011300067EC0EF0490E066E100E076E0650071093
:10114000D8A4000E086E050E096E010E0A6E02ECA0
:101150000CF0060E096E010E0A6E20EE03F012501E
:10116000D9261350DA22DF50146E1450016E026A31
:10117000000E046E0A0E036E48EC0CF00150300FA6
:1011800067EC0EF0070E096E010E0A6E20EE03F0FA
:101190001250D9261350DA22DF50146E1450016E0B
:1011A000026A000E046E0A0E036E8AEC0CF0015007
:1011B000300F67EC0EF0100E066E100E076E065024
:1011C0000710D8A4000E086E080E096E010E0A6EF4
:1011D00002EC0CF080D0330E066E100E076E065037
:1011E0000710D8A4000E086E090E096E010E0A6ED3
:1011F00002EC0CF012002B0E066E100E076E06505D
:101200000710D8A4000E086E090E096E010E0A6EB2
:1012100002EC0CF01200270E066E100E076E065040
:101220000710D8A4000E086E090E096E010E0A6E92
:1012300002EC0CF012003F0E066E100E076E065008
:101240000710D8A4000E086E090E096E010E0A6E72
:1012500002EC0CF012002F0E066E100E076E0650F8
:101260000710D8A4000E086E090E096E010E0A6E52
:1012700002EC0CF012003B0E066E100E076E0650CC
:101280000710D8A4000E086E090E096E010E0A6E32
:1012900002EC0CF01200370E066E100E076E0650B0
:1012A0000710D8A4000E086E090E096E010E0A6E12
:1012B00002EC0CF01200230E066E100E076E0650A4
:1012C0000710D8A4000E086E090E096E010E0A6EF2
:1012D00002EC0CF0120012C0D9FF13C0DAFFDF508D
:1012E000010AD8B478D7030AD8B485D7010AD8B48C
:1012F00092D7070AD8B49FD7010AD8B4ACD7030A4B
:10130000D8B4B9D7010AD8B4C6D7D5D7000E096E5C
:10131000000E0A6E20EE02F01250D9261350DA2287
:10132000DF50146E1450016E026A000E046E0A0E35
:10133000036E48EC0CF00150300F67EC0EF0010E1C
:10134000096E000E0A6E20EE02F01250D9261350DC
:10135000DA22DF50146E1450016E026A000E046E21
:101360000A0E036E8AEC0CF00150300F67EC0EF0A1
:101370004B0E066E100E076E06500710D8A4000E16
:10138000086E020E096E000E0A6E02EC0CF0030EDF
:10139000096E000E0A6E20EE01F01250D92613508D
:1013A000DA22DF50146E1450016E026A000E046ED1
:1013B0000A0E036E48EC0CF00150300F67EC0EF093
:1013C000040E096E000E0A6E20EE01F01250D926AE
:1013D0001350DA22DF50146E1450016E026A000EB0
:1013E000046E0A0E036E8AEC0CF00150300F67ECAD
:1013F0000EF04B0E066E100E076E06500710D8A4A6
:10140000000E086E050E096E000E0A6E02EC0CF05E
:10141000060E096E000E0A6E12C0D9FF13C0DAFF65
:10142000DF50146E1450016E026A000E046E0A0E34
:10143000036E48EC0CF00150300F67EC0EF0070E15
:10144000096E000E0A6E12C0D9FF13C0DAFFDF501A
:10145000146E1450016E026A000E046E0A0E036EC2
:101460008AEC0CF00150300F67EC0EF0100E066E97
:10147000100E076E06500710D8A4000E086E080E56
:10148000096E000E0A6E02EC0CF02DD0430E066EB3
:10149000100E076E06500710D8A4000E086E090E35
:1014A000096E000E0A6E02EC0CF01200460E066E7B
:1014B000100E076E06500710D8A4000E086E090E15
:1014C000096E000E0A6E02EC0CF01200480E066E59
:1014D000000E076E000E086E090E096E000E0A6EF1
:1014E00002EC0CF0120020EE03F01250D92613503B
:1014F000DA22DF50000AD8B4C9D7010AD8B4D6D747
:10150000E5D70F6E0CC001F0026A000E046E0A0EE1
:10151000036E8AEC0CF001C00DF002C00EF00CC09E
:1015200001F0026A000E046E0A0E036E48EC0CF025
:101530000138F00B0D10186E0FC001F0026A000E9A
:10154000046E0A0E036E8AEC0CF001C00DF002C0AE
:101550000EF00FC001F0026A000E046E0A0E036E58
:1015600048EC0CF00138F00B0D10196E0AC001F0B8
:10157000026A000E046E0A0E036E8AEC0CF001C0C3
:101580000DF002C00EF00AC001F0026A000E046EF7
:101590000A0E036E48EC0CF00138F00B0D101A6EB9
:1015A0000BC001F0026A000E046E0A0E036E8AEC94
:1015B0000CF001C00DF002C00EF00BC001F0026A89
:1015C000000E046E0A0E036E48EC0CF00138F00BAE
:1015D0000D101B6E180E026E000E036E040E046ECC
:1015E000030EC0EC0DF012000F6E0CC001F0026A89
:1015F000000E046E0A0E036E8AEC0CF001C00DF0B2
:1016000002C00EF00CC001F0026A000E046E0A0E59
:10161000036E48EC0CF00138F00B0D10186E0BC087
:1016200001F0026A000E046E0A0E036E8AEC0CF0E2
:1016300001C00DF002C00EF00BC001F0026A000EF6
:10164000046E0A0E036E48EC0CF00138F00B0D101E
:10165000196E0AC001F0026A000E046E0A0E036ED3
:101660008AEC0CF001C00DF002C00EF00AC001F0CF
:10167000026A000E046E0A0E036E48EC0CF001388C
:10168000F00B0D101A6E05D01A8C0AD0600E1A12CB
:1016900007D00F50000AD8B4F7D7010AD8B4F6D74C
:1016A000180E026E000E036E030E046E000EC0ECE8
:1016B0000DF01200680E046EE40EE82EFED7042E24
:1016C000FCD700D0030E2AEC0EF01A0E046EF80EB2
:1016D000E82EFED7042EFCD700D0030E2AEC0EF025
:1016E000030E2AEC0EF0020E2AEC0EF0200E92EC05
:1016F0000DF0280E92EC0DF0140E92EC0DF00F0E82
:1017000092EC0DF0010E92EC0DF0060E92EC0DF045
:101710000C0E92EC0DF0680E046EE40EE82EFED76F
:10172000042EFCD700D00C0E92EC0DF0400E92EC83
:101730000DF0080E0BEC0EF00C0E0BEC0EF00E0E76
:101740000BEC0EF00F0E0BEC0EF00E0E0BEC0EF081
:101750000C0E0BEC0EF0080E0BEC0EF0000E0BEC6A
:101760000EF0020E92EC0DF01200180E026E000E3A
:10177000036E000E056E030E046E000E2DEC0DF0D0
:1017800018C017F017C00BF00F0E0B1617380F0B01
:10179000070B0A0DF3500B24186E19C017F017C071
:1017A0000BF00F0E0B1617380F0B0A0DF3500B240E
:1017B000196E1AAC14D01AAA02D0010E01D0000E74
:1017C0001B6E1AC017F017C00BF00F0E0B16173850
:1017D0000F0B010B0A0DF3500B241A6E0ED01AC01A
:1017E00017F017C00BF00F0E0B1617380F0B0A0D62
:1017F000F3500B241A6E020E1B6E180E096E000EAB
:101800000A6E1200000E106E09501008106E0AC009
:1018100004F00950E7EC0DF0000E116E1BD01150D2
:10182000010DF3CF0BF0F4CF0CF00B5006240D6E2E
:101830000C5007200E6E000E08200F6E0DC0F6FF34
:101840000EC0F7FF0FC0F8FF0800F5500BEC0EF0CC
:10185000112A10061150010DF3CF0BF0F4CF0CF04C
:101860000B5006240D6E0C5007200E6E000E082043
:101870000F6E0DC0F6FF0EC0F7FF0FC0F8FF080097
:10188000F5500009D8B412001050D8B41200C7D7D0
:10189000000E066E04AE06D0036C041ED8B0042AF7
:1018A000010E066E02AE06D0016C021ED8B0022AEE
:1018B000010E061A000E086E000E076E035004108B
:1018C000D8B41CD0010E056E04D0D890033604366F
:1018D000052A04AEFAD7D890073608360350015CC3
:1018E00004500258D8A005D00350015E0450025A9B
:1018F0000780D89004320332052EEDD70650D8B4B5
:1019000004D0076C081ED8B0082A07C001F008C030
:1019100002F01200000E066E02AE06D0016C021E2E
:10192000D8B0022A010E066E04AE04D0036C041E69
:10193000D8B0042A03500410D8B418D0010E056E94
:1019400004D0D89003360436052A04AEFAD70350E3
:10195000015C04500258D8A004D00350015E04502A
:10196000025AD89004320332052EF1D70650D8B46B
:1019700004D0016C021ED8B0022A01C001F002C0DE
:1019800002F0120044EC0EF05AEC0BF071EC0EF089
:101990000B0E0A6E3B0E0B6E370E0C6E010EF4EC46
:1019A0000AF0070E0A6E110E0B6E020E0C6E190E67
:1019B00081EC0AF061EC0DF0B5EC0BF009C012F00F
:1019C0000AC013F086EC09F0F9EC0CF009C012F033
:1019D0000AC013F027EC08F0150E166E4B0E156EAC
:1019E000BE0EE82EFED7152EFCD7162EFAD700D045
:1019F000E3D7180E026E000E036E000E056E040E85
:101A0000046E030E2DEC0DF019C017F017C00BF08B
:101A10000F0E0B1617380F0B0A0DF3500B24196E0F
:101A20001AC017F017C00BF00F0E0B1617380F0B5C
:101A30000A0DF3500B241A6E1BC017F017C00BF0E1
:101A40000F0E0B1617380F0B0A0DF3500B241B6EDD
:101A5000180E096E000E0A6E1200066EA0EC0EF053
:101A6000D00E5BEC0EF0D8B0F9D706505BEC0EF060
:101A7000A5EC0EF0D10E5BEC0EF095EC0EF002C072
:101A8000D9FF03C0DAFFDF6E000E086E010E076E8D
:101A90000DD08FEC0EF007500224D96E08500320B1
:101AA000DA6E95EC0EF0DF6E074A082A0450075CE8
:101AB00005500858D8A0EDD789EC0EF09BEC0EF03D
:101AC0001200010E92EC0DF0010E066E100E076E64
:101AD00006500710D8A4000E086E000E096E000E06
:101AE0000A6E02EC0CF0120E066E100E076E065017
:101AF0000710D8A4000E086E000E096E010E0A6EC3
:101B000002EC0CF0290E136E960E126E7F0EE82E6C
:101B1000FED7122EFCD7132EFAD700F0010E92EC4E
:101B20000DF01200036E8392839083500F0B836E2F
:101B30000350F00B026E0250831282EC0EF08350C1
:101B40000F0B836E03C001F00F0E01160138F00B6E
:101B5000026E0250831282EC0EF03C0EE82EFED78D
:101B6000020E0318D8B403D00304D8A412000B0E3D
:101B7000016E620EE82EFED7012EFCD700D01200B7
:101B8000076EA0EC0EF0D00E5BEC0EF0D8B0F9D7DB
:101B900007505BEC0EF0000E096E000E086E0BD0C5
:101BA00008500224D96E09500320DA6EDF505BEC36
:101BB0000EF0084A092A0450056E066A0550085CB2
:101BC00006500958D8A0ECD79BEC0EF01200056E19
:101BD00014D00550800F92EC0DF012000550C00F8C
:101BE00092EC0DF012000550900F92EC0DF01200E7
:101BF0000550D00F92EC0DF012000450000AD8B43A
:101C0000E8D7010AD8B4EAD7030AD8B4ECD7010A56
:101C1000D8A41200EDD7026E8392838083500F0BFD
:101C2000836E0250F00B036E0350831282EC0EF0B1
:101C300083500F0B836E02C001F00F0E01160138A6
:101C4000F00B036E0350831282EC0EF03C0EE82E74
:101C5000FED71200026E8392839083500F0B836E27
:101C600002C001F00F0E01160138F00B036E035095
:101C7000831282EC0EF00B0E016E620EE82EFED780
:101C8000012EFCD700D01200D3508F0B6009D36E09
:101C90009B8CC168000E806E000E816E000E826EFD
:101CA000000E836E000E926E000E936E000E946E08
:101CB000000E956E1200016E01C0C9FF9EA6FED7F0
:101CC0009E96C5BC02D0D8901200D88012000B6E30
:101CD0000AC004F00950E7EC0DF00B500BEC0EF0CD
:101CE000120094889486270EC86E800EC76E280E48
:101CF000C66E12001B6A1A6A196A186A176A00010E
:101D0000C2EF0CF0838200D000D0839200D000D0CC
:101D10001200C58AC5889EA6FED79E961200C59A57
:101D2000C5889EA6FED79E961200C5869EA6FED7A3
:101D30009E96C9501200C5849EA6FED79E9612009C
:101D4000C5809EA6FED79E961200C5829EA6FED78F
:041D50009E96120049
:020000040020DA
:08000000FFFFFFFFFFFFFFFF00
:020000040030CA
:0E000000FFC8181EFF8381FF0FC00FE00F40E6
:00000001FF
